:020000020000FC
:0C0000000C9448000C9409010C941801A9
:04003C000C947901A6
:040050000C945001BB
:04005C000C942C01D3
:040074000C94A30144
:10008C000C94A201442455246624772488249924B2
:10009C00AA24BB24CC24DD24EE24FF240027112722
:1000AC0022273327442755276627772788270FEFE2
:1000BC000DBF01E20EBF00E004BD00938000009371
:1000CC00B0000093900002E005BD00938100009306
:1000DC00B1000093910001E000936E0001E00093E9
:1000EC006F0001E00093700001E0009371000FEFCE
:1000FC0000BB01B9002701BB02B908E318D327D311
:10010C0040D308E314D323D333D308E310D31FD342
:10011C0008E30DD31CD308E00AD319D301E007D3AD
:10012C0016D306E004D313D30CE001D310D30FEF96
:10013C0007B903BB08B904BB00EF00930A010FEF2A
:10014C000AE0009369000DB303600DBB00EC009353
:10015C007C0008E000937B000FEC00937A0001E038
:10016C0011E0009308021093090202E012E00093E0
:10017C000A0210930B0203E011E000930C0210939F
:10018C000D0204E012E000930E0210930F0205E042
:10019C0011E0009310021093110206E012E000939C
:1001AC0012021093130207E011E000931402109353
:1001BC00150208E012E0009316021093170200E0FB
:1001CC0011E00093180210931902C7D0F394B39462
:1001DC0072E0DAD1A2D226D1F39470E0D5D10AE044
:1001EC00E016C8F701E0E016B0F333D20027801612
:1001FC0011F00C9404013CD10C94F10091D10C94AD
:10020C00F100E9CFFFCF0F931F930FB70F9300248B
:10021C00C01409F416C0203011F013C021E063940F
:10022C00CC240FC00F931F930FB70F930024C0144F
:10023C0009F407C0203011F004C021E07394CC24E1
:10024C0000C00F910FBF1F910F9118950F930FB70F
:10025C000F93DF93CF939F938F9380910002909194
:10026C0001020196813A07E0900739F4C0E0D2E030
:10027C00002709930883222705C0809300029093DE
:10028C00010200C08F919F91CF91DF910F910FBF11
:10029C000F9118950F930FB70F93DF93CF939F93F5
:1002AC008F9301E0A01609F016C080910202909184
:1002BC00030201968E3200E0900741F4C2E0D2E0D6
:1002CC0000270993088302E0A02E05C08093020248
:1002DC009093030200C08F919F91CF91DF910F916A
:1002EC000FBF0F9118950F930FB70F93DF93CF9309
:1002FC009F938F9301E0B01609F016C08091040211
:10030C009091050201968C380BE5900741F4C4E0FE
:10031C00D2E000270993088302E0B02E05C0809339
:10032C0004029093050200C08F919F91CF91DF91B1
:10033C000F910FBF0F91189518950F930FB70F933F
:10034C00509079004090780048B854BA0FEC009364
:10035C007A000F910FBF0F91189581E001E0E7D162
:10036C00F6D102E3EBD1F3D101E3E8D1F0D102E312
:10037C00E5D1EDD101E3E2D1EAD100E2DFD1E7D161
:10038C0001E3DCD1E4D107E3D9D1E1D103E7D6D144
:10039C00DED101E3D3D1DBD100E2D0D1D8D100E260
:1003AC00CDD1D5D100E2CAD1D2D100E2C7D1CFD1C3
:1003BC000AE4C4D1CCD101E3C1D1C9D101E3BED18E
:1003CC00C6D100ECB4D1C3D106E5B8D1C0D105E695
:1003DC00B5D1BDD10EE6B2D1BAD104E6AFD1B7D109
:1003EC0009E6ACD1B4D10EE6A9D1B1D107E6A6D1BC
:1003FC00AED100E2A3D1ABD10DE4A0D1A8D101E6DE
:10040C009DD1A5D103E69AD1A2D108E697D19FD16F
:10041C0009E694D19CD10EE691D199D105E68ED105
:10042C0096D1089582E001E082D191D103E586D185
:10043C008ED105E683D18BD10CE680D188D105E62F
:10044C007DD185D103E67AD182D104E777D17FD1F2
:10045C0000E274D17CD109E471D179D104E76ED179
:10046C0076D105E66BD173D10DE668D170D10895C4
:10047C000F931F930FB70F9383E001E058D167D10F
:10048C000FE45CD164D105E759D161D104E756D1B1
:10049C005ED100E253D15BD10FE650D158D106E6C4
:1004AC004DD155D100E24AD152D103E547D14FD1BC
:1004BC0004E744D14CD10FE641D149D103E63ED1FA
:1004CC0046D10BE63BD143D100EC31D140D11E2DAE
:1004DC0000E3010F33D13BD1C394A39414D102E0B8
:1004EC00A01639F001E0601689F0701679F00C94C2
:1004FC00740201E0A02E11D102E0A01639F001E047
:10050C00601621F0701611F00C94810206D1AA2409
:10051C00CC24662477240F910FBF1F910F9108955F
:10052C0085E001E004D113D109E408D110D10EE625
:10053C0005D10DD103E702D10AD105E6FFD007D1D1
:10054C0002E7FCD004D104E7F9D001D100E2F6D0E7
:10055C00FED003E6F3D0FBD00FE6F0D0F8D009E6DE
:10056C00EDD0F5D00EE6EAD0F2D003E7E7D0EFD02D
:10057C0000ECDDD0ECD0192D00E3010FDFD0E7D07B
:10058C0011D110D1CAD008950F931F930FB70F93A9
:10059C000024F01409F450C0203011F04DC021E0BB
:1005AC006FEE442702E0B016C1F14430C9F36093FA
:1005BC000B010FEF0A95F1F7009109010F700F3045
:1005CC0059F051E03327343039F0102F152341F016
:1005DC003395550F0C94E902660F43950C94D80291
:1005EC00433049F0333059F0032F000F030F040F41
:1005FC000F5F0C9412030AE0030F0C9412034030AB
:10060C0029F0413031F00FE00C9412030EE00C9401
:10061C00120300270C941203E02EBB24C4E0D2E09A
:10062C00002709930883FF240C941C03703021F0DD
:10063C00713039F0723049F00F910FBF1F910F914B
:10064C00089577278ADE0C9422037727EBDE0C942F
:10065C0022030F931F930FB70F9311E0E116C1F014
:10066C001395E116D9F01395E116F1F01395E116F7
:10067C0009F11395E11621F11395E11639F1139552
:10068C00E11651F11395E11669F11395E11681F11B
:10069C0080900802909009020C94840380900A02C6
:1006AC0090900B020C94840380900C0290900D029D
:1006BC000C94840380900E0290900F020C9484038F
:1006CC0080901002909011020C948403809012027E
:1006DC00909013020C948403809014029090150255
:1006EC000C94840380901602909017020C9484034F
:1006FC0080901802909019020C9484030F910FBFF4
:10070C001F910F9108950F930FB70F930FEF08B927
:10071C0004BB0F910FBF0F9108950F930FB70F9359
:10072C00002708B904BB0F910FBF0F91089501BBAF
:10073C001FD0169A1DD016981BD0089501BB179A7E
:10074C0017D0169A15D0169813D0179808950F93A2
:10075C00002700BB01BB159A0BD0169A09D00FB11C
:10076C00169807FDF9CF15980FEF00BB0F91089560
:10077C008F939F939FE08CE90197F1F79F918F9155
:10078C000895F6DFF5DFF4DFF3DFF2DF0895F9DF2C
:10079C00F8DFF7DFF6DFF5DF0895F9DFF8DFF7DFD5
:1007AC00F6DF0895FADFF9DFF8DFF7DFF6DF0895FB
:00000001FF
