:020000020000FC
:0C0000000C945C000C9429010C94380155
:04003C000C94990186
:040050000C9470019B
:04005C000C944C01B3
:040074000C942402C2
:04008C000C94C2010D
:1000B4000C94D60122243324442455246624772422
:1000C40088249924AA24BB24CC24DD24EE24FF24F0
:1000D4000027112722273327442755276627772708
:1000E40088270FEF0DBF01E20EBF00E004BD0093AF
:1000F40080000093B0000093A00002E005BD0093CF
:1001040081000093B1000093A10001E000936E0010
:1001140001E000936F0001E00093700001E00093A0
:1001240072000FEF0DB901E20093900004E0009318
:10013400910004E0009371000FEF00BB01B90027A8
:1001440001BB02B908E362D471D48AD408E35ED453
:100154006DD47DD408E35AD469D408E357D466D463
:1001640008E054D463D401E051D460D406E04ED402
:100174005DD40CE04BD45AD40FEF07B903BB08B9D4
:1001840004BB00EF00930A010FEF0AE0009369003B
:100194000DB303600DBB00EC00937C0008E00093FA
:1001A4007B000FEC00937A0001E011E00093080259
:1001B4001093090202E012E000930A0210930B026A
:1001C40003E011E000930C0210930D0204E012E02E
:1001D40000930E0210930F0205E011E00093100249
:1001E4001093110206E012E000931202109313021E
:1001F40007E011E0009314021093150208E012E0E6
:10020400009316021093170209E011E000931802FC
:100214001093190225D1F394B39472E0A6D2ECD3CF
:1002240084D1F39470E0A1D20AE0E016C8F701E0AB
:10023400E016B0F31AD30027801611F00C942501B0
:100244009AD10C941201EFD10C941201FFCF0F93A9
:100254001F930FB70F930024C01409F416C0203065
:1002640011F013C021E06394CC240FC00F931F93AB
:100274000FB70F930024C01409F407C0203011F005
:1002840004C021E07394CC2400C00F910FBF1F91D0
:100294000F9118950F930FB70F93DF93CF939F93FD
:1002A4008F9380910002909101020196813A07E0B8
:1002B400900739F4C0E0D2E000270993088322278D
:1002C40005C0809300029093010200C08F919F911A
:1002D400CF91DF910F910FBF0F9118950F930FB727
:1002E4000F93DF93CF939F938F9301E0A01609F0B0
:1002F40016C0809102029091030201968E3200E0B2
:10030400900741F4C2E0D2E000270993088302E099
:10031400A02E05C0809302029093030200C08F9127
:100324009F91CF91DF910F910FBF0F9118950F936C
:100334000FB70F93DF93CF939F938F9301E0B01682
:1003440009F016C0809104029091050201968C3840
:100354000BE5900741F4C4E0D2E000270993088339
:1003640002E0B02E05C0809304029093050200C001
:100374008F919F91CF91DF910F910FBF0F9118959E
:100384000F930FB70F930024301411F40C94CD0184
:100394000FEF0C94D00100270C94D00100939A0025
:1003A4000F910FBF0F9118950F931F930FB70F93D2
:1003B400DF93CF939F938F930024D014D1F1809136
:1003C4000602909107020196833000E0900761F5E0
:1003D400C6E0D2E00027099308834090780050904B
:1003E40079000394D01449F00394D01469F0039471
:1003F400D01419F00394D01471F000E010E040160A
:10040400510679F00C941B020FEF13E040165106CD
:1004140041F00C941B0223949A9401E0D02E0C9486
:100424001B02D3940C941B02809306029093070240
:1004340000C08F919F91CF91DF910F910FBF1F91BA
:100444000F9118950F931F930FB70F9300917A0094
:10045400006400937A000F910FBF1F910F911895BC
:1004640081E001E0D3D2E2D202E3D7D2DFD201E3CA
:10047400D4D2DCD202E3D1D2D9D201E3CED2D6D2C5
:1004840000E2CBD2D3D201E3C8D2D0D207E3C5D2A3
:10049400CDD203E7C2D2CAD201E3BFD2C7D200E2AF
:1004A400BCD2C4D200E2B9D2C1D200E2B6D2BED22A
:1004B40000E2B3D2BBD20AE4B0D2B8D201E3ADD2E7
:1004C400B5D201E3AAD2B2D200ECA0D2AFD206E5F3
:1004D400A4D2ACD205E6A1D2A9D20EE69ED2A6D26F
:1004E40004E69BD2A3D209E698D2A0D20EE695D216
:1004F4009DD207E692D29AD200E28FD297D20DE42F
:100504008CD294D201E689D291D203E686D28ED2DD
:1005140008E683D28BD209E680D288D20EE67DD259
:1005240085D205E67AD282D2089582E001E06ED2C5
:100534007DD203E572D27AD205E66FD277D20CE689
:100544006CD274D205E669D271D203E666D26ED259
:1005540004E763D26BD200E260D268D209E45DD2D0
:1005640065D204E75AD262D205E657D25FD20DE6CD
:1005740054D25CD208950F931F930FB70F9383E067
:1005840001E044D253D20FE448D250D205E745D219
:100594004DD204E742D24AD200E23FD247D20FE61C
:1005A4003CD244D206E639D241D200E236D23ED21F
:1005B40003E533D23BD204E730D238D20FE62DD252
:1005C40035D203E62AD232D20BE627D22FD200EC60
:1005D4001DD22CD21E2D00E3010F1FD227D2C394AB
:1005E400A39400D202E0A01639F001E0601689F06D
:1005F400701679F00C94F30201E0A02EFDD102E014
:10060400A01639F001E0601621F0701611F00C9478
:100614000003F2D1AA24CC24662477240F910FBFBF
:100624001F910F9108950F931F930FB70F9385E0B8
:1006340001E0ECD1FBD109E4F0D1F8D10EE6EDD123
:10064400F5D103E7EAD1F2D105E6E7D1EFD102E72C
:10065400E4D1ECD104E7E1D1E9D100E2DED1E6D185
:1006640003E6DBD1E3D10FE6D8D1E0D109E6D5D159
:10067400DDD10EE6D2D1DAD103E7CFD1D7D100EC68
:10068400C5D1D4D1192D00E3010FC7D1CFD11E2D6F
:10069400D394F39470E069D00024901429F00FE00F
:1006A400E01631F00C944B03E12E39D10C9467031E
:1006B4000024201451F03394DFD1DED1D7D1D6D128
:1006C4003324DAD1D9D1D2D1D1D196D12224DD2487
:1006D4000F910FBF1F910F9108950F931F930FB7A1
:1006E4000F9386E001E092D1A1D104E496D19ED18A
:1006F40005E693D19BD10CE690D198D109E68DD132
:1007040095D106E78AD192D105E687D18FD102E748
:1007140084D18CD109E681D189D10EE67ED186D1EE
:1007240007E67BD183D100E278D180D109E675D187
:100734007DD104E772D17AD105E66FD177D10DE688
:100744006CD174D133940FEF08B904BB9AD199D109
:1007540098D1002708B904BB94D193D192D1332402
:100764000F910FBF1F910F9108950F931F930FB710
:100774000F930024F01409F46BC0203011F068C00A
:1007840021E06FEE442702E0B01611F40C941B0430
:1007940005E0801711F00C94E30300EC37D146D147
:1007A400192D00E3010F39D141D1022D08B90024DC
:1007B400901411F00C94E30376E0DD2422240C94CD
:1007C4001B044430F1F260930B010FEF0A95F1F72B
:1007D400009109010F700F3059F051E03327343084
:1007E40039F0102F152341F03395550F0C94F10374
:1007F400660F43950C94C503433049F0333059F0E8
:10080400032F000F030F040F0F5F0C941A040AE068
:10081400030F0C941A04403029F0413031F00FE0FA
:100824000C941A040EE00C941A0400270C941A0475
:10083400E02EBB24C4E0D2E0002709930883FF2400
:100844000C942404703021F0723039F0763049F081
:100854000F910FBF1F910F910895772766DE0C94B7
:100864002A0477273ADF0C942A040F931F930FB7B7
:100874000F9311E0E116C1F01395E116D9F0139529
:10088400E116F1F01395E11609F11395E11621F142
:100894001395E11639F11395E11651F11395E1160B
:1008A40069F11395E11681F1809008029090090294
:1008B4000C948C0480900A0290900B020C948C048B
:1008C40080900C0290900D020C948C0480900E0287
:1008D40090900F020C948C0480901002909011025E
:1008E4000C948C0480901202909013020C948C044B
:1008F40080901402909015020C948C04809016023F
:10090400909017020C948C04809018029090190215
:100914000C948C040F910FBF1F910F9108950F93A6
:100924001F930FB70F9311E0E116C1F01395E11671
:10093400E1F01395E11601F11395E11621F11395F8
:10094400E11641F11395E11661F11395E11681F178
:100954001395E116A1F11395E116C1F180900802F7
:100964008A94809208020C94EF0480900A028A947C
:1009740080920A020C94EF0480900C028A94809274
:100984000C020C94EF0480900E028A9480920E0262
:100994000C94EF04809010028A94809210020C94BC
:1009A400EF04809012028A94809212020C94EF0455
:1009B400809014028A94809214020C94EF04809024
:1009C40016028A94809216020C94EF048090180206
:1009D4008A94809218020C94EF040F910FBF1F9118
:1009E4000F9108950F930FB70F930FEF08B904BB3E
:1009F4000F910FBF0F9108950F930FB70F93002717
:100A040008B904BB0F910FBF0F91089501BB1FD00C
:100A1400169A1DD016981BD0089501BB179A17D0AB
:100A2400169A15D0169813D0179808950F93002787
:100A340000BB01BB159A0BD0169A09D00FB11698BA
:100A440007FDF9CF15980FEF00BB0F9108958F9311
:100A54009F939FE08CE90197F1F79F918F910895FF
:100A6400F6DFF5DFF4DFF3DFF2DF0895F9DFF8DF17
:100A7400F7DFF6DFF5DF0895F9DFF8DFF7DFF6DFFC
:0E0A84000895FADFF9DFF8DFF7DFF6DF0895F7
:00000001FF
