:020000020000FC
:0C0000000C9466000C943B010C944A0127
:04003C000C94AB0174
:040050000C94820189
:04005C000C945E01A1
:040074000C9488025E
:04008C000C94D401FB
:0400B4000C94120294
:1000C8000C946002112422243324442455246624E9
:1000D800772488249924AA24BB24CC24DD24EE2464
:1000E800FF2400271127222733274427552766276F
:1000F800772788270FEF0DBF01E20EBF00E004BD90
:10010800009380000093B0000093A00000932001AA
:1001180002E005BD009381000093B1000093A100A7
:100128000093210101E000936E0001E000936F004D
:1001380001E00093700001E00093720001E0009379
:1001480073000FEF0DB901EA0093900004E00093EB
:10015800910006E0009371000FEF00BB01B9002782
:1001680001BB02B908E358D667D680D608E354D64F
:1001780063D673D608E350D65FD608E34DD65CD66F
:1001880008E04AD659D601E047D656D606E044D606
:1001980053D60CE041D650D60FEF07B903BB08B9C8
:1001A80004BB00EF00930A010FEF0AE00093690017
:1001B8000DB303600DBB00EC00937C0008E00093D6
:1001C8007B000FEC00937A0001E011E000930A0233
:1001D80010930B0202E012E000930C0210930D0240
:1001E80003E011E000930E0210930F0204E012E006
:1001F800009310021093110205E011E0009312021F
:100208001093130206E012E00093140210931502F3
:1002180007E011E0009316021093170208E012E0BD
:10022800009318021093190209E011E000931A02D2
:1002380010931B0277D1F394B39472E006D4E2D5FD
:10024800D6D1F39470E001D40AE0E016C8F701E0D3
:10025800E016B0F310D50027801611F00C94370182
:10026800ECD10C94240141D20C942401FFCF0F93BC
:100278001F930FB70F930027C01609F416C020303C
:1002880011F013C021E06394CC240FC00F931F9387
:100298000FB70F930027C01609F407C0203011F0DC
:1002A80004C021E07394CC2400C00F910FBF1F91AC
:1002B8000F9118950F930FB70F93DF93CF939F93D9
:1002C8008F9380910002909101020196813A07E094
:1002D800900739F4C0E0D2E0002709930883222769
:1002E80005C0809300029093010200C08F919F91F6
:1002F800CF91DF910F910FBF0F9118950F930FB703
:100308000F93DF93CF939F938F9301E0A01609F08B
:1003180016C0809102029091030201968E3200E08D
:10032800900741F4C2E0D2E000270993088302E075
:10033800A02E05C0809302029093030200C08F9103
:100348009F91CF91DF910F910FBF0F9118950F9348
:100358000FB70F93DF93CF939F938F9301E0B0165E
:1003680009F016C0809104029091050201968C381C
:100378000BE5900741F4C4E0D2E000270993088315
:1003880002E0B02E05C0809304029093050200C0DD
:100398008F919F91CF91DF910F910FBF0F9118957A
:1003A8000F931F930FB70F930027301651F0039543
:1003B800301679F003953016B1F00C9400020C94C5
:1003C80008020027109198001017F1F01A950C9464
:1003D80008020FEF002E0027109198001015A1F0C9
:1003E80013950C9408020FEF109198000024101533
:1003F80059F01A950C9408020FEF109198001017F5
:1004080019F013950C940802002400939A00109395
:1004180098000F910FBF1F910F9118950F931F937D
:100428000FB70F93DF93CF939F938F930027D01627
:10043800D1F180910802909109020196833000E081
:10044800900761F5C8E0D2E000270993088340903F
:1004580078005090790001E0D01649F00395D01645
:1004680069F00395D01619F00395D01671F000E0E5
:1004780010E04016510679F00C9457020FEF13E084
:100488004016510641F00C94570223949A9401E0C7
:10049800D02E0C945702D3940C94570280930802E0
:1004A8009093090200C08F919F91CF91DF910F9196
:1004B8000FBF1F910F9118950F930FB70F93DF93ED
:1004C800CF939F938F9301E0101609F015C0809188
:1004D8000602909107020196893900E0900739F4E5
:1004E800C4E0D2E0002709930883112405C0809353
:1004F80006029093070200C08F919F91CF91DF91E0
:100508000F910FBF0F9118950F931F930FB70F936C
:1005180000917A00006400937A000F910FBF1F9139
:100528000F91189581E001E077D486D402E37BD45B
:1005380083D401E378D480D402E375D47DD401E375
:1005480072D47AD400E26FD477D401E36CD474D433
:1005580007E369D471D403E766D46ED401E363D4A6
:100568006BD400E260D468D400E25DD465D400E2C4
:100578005AD462D400E257D45FD40AE454D45CD489
:1005880001E351D459D401E34ED456D400EC44D4F9
:1005980053D406E548D450D405E645D44DD40EE6E8
:1005A80042D44AD404E63FD447D409E63CD444D4E0
:1005B8000EE639D441D407E636D43ED400E233D42B
:1005C8003BD40DE430D438D401E62DD435D403E639
:1005D8002AD432D408E627D42FD409E624D42CD43C
:1005E8000EE621D429D405E61ED426D4089582E047
:1005F80001E012D421D403E516D41ED405E613D4A1
:100608001BD40CE610D418D405E60DD415D403E693
:100618000AD412D404E707D40FD400E204D40CD4CB
:1006280009E401D409D404E7FED306D405E6FBD3D4
:1006380003D40DE6F8D300D408950F931F930FB792
:100648000F9383E001E0E8D3F7D30FE4ECD3F4D3BE
:1006580005E7E9D3F1D304E7E6D3EED300E2E3D329
:10066800EBD30FE6E0D3E8D306E6DDD3E5D300E22B
:10067800DAD3E2D303E5D7D3DFD304E7D4D3DCD38B
:100688000FE6D1D3D9D303E6CED3D6D30BE6CBD35B
:10069800D3D300ECC1D3D0D31E2D00E3010FC3D3B5
:1006A800CBD3C394A394A4D302E0A01639F001E0FD
:1006B800601689F0701679F00C94570301E0A02EAB
:1006C800A1D302E0A01639F001E0601621F07016FF
:1006D80011F00C94640396D3AA24CC2466247724BE
:1006E8000F910FBF1F910F9108950F931F930FB78D
:1006F8000F9385E001E090D39FD309E494D39CD372
:100708000EE691D399D303E78ED396D305E68BD320
:1007180093D302E788D390D304E785D38DD300E23F
:1007280082D38AD303E67FD387D30FE67CD384D3DF
:1007380009E679D381D30EE676D37ED303E773D364
:100748007BD300EC69D378D3192D00E3010F6BD369
:1007580073D31E2DD394F39470E077D100279016AD
:1007680029F00FE0E01631F00C94AF03E12EDDD252
:100778000C9453040027201611F40C9453040F937F
:100788001F930FB70F9311E00027101741F003953F
:10079800101769F00395101791F00C94EB0300E023
:1007A800301609F102E0301631F10C94030400E030
:1007B8003016E9F001E03016F1F00C94030401E082
:1007C800301669F003E0301691F00C94030402E04F
:1007D800301629F003E0301631F00C94030400E0E1
:1007E800302E0C94030401E0302E0C94030402E034
:1007F800302E0C94030403E0302E0C9403040F9164
:100808000FBF1F910F913ED33DD336D335D30F93EE
:100818001F930FB70F9313E00027101741F00395AC
:10082800101769F00395101791F00C94330400E049
:10083800301609F102E0301631F10C944B0400E057
:100848003016E9F001E03016F1F00C944B0401E0A9
:10085800301669F003E0301691F00C944B0402E076
:10086800301629F003E0301631F00C944B0400E008
:10087800302E0C944B0401E0302E0C944B0402E013
:10088800302E0C944B0403E0302E0C944B040F9143
:100898000FBF1F910F91F6D2F5D2EED2EDD2B2D2A0
:1008A8002224DD240F910FBF1F910F9108950F93FC
:1008B8001F930FB70F9386E001E0AED2BDD204E4D8
:1008C800B2D2BAD205E6AFD2B7D20CE6ACD2B4D225
:1008D80009E6A9D2B1D206E7A6D2AED205E6A3D2DE
:1008E800ABD202E7A0D2A8D209E69DD2A5D20EE6E5
:1008F8009AD2A2D207E697D29FD200E294D29CD293
:1009080009E691D299D204E78ED296D205E68BD227
:1009180093D20DE688D290D20F931F930FB70F93FF
:1009280011E00027101741F00395101769F003959F
:10093800101791F00C94B80400E0301609F102E0A9
:10094800301631F10C94D00400E03016E9F001E0E3
:100958003016F1F00C94D00401E0301669F003E091
:10096800301691F00C94D00402E0301629F003E020
:10097800301631F00C94D00400E0302E0C94D004E2
:1009880001E0302E0C94D00402E0302E0C94D004F8
:1009980003E0302E0C94D0040F910FBF1F910F91DC
:1009A8000FEF08B904BB73D272D271D2002708B90D
:1009B80004BB6DD26CD26BD20F931F930FB70F93FA
:1009C80013E00027101741F00395101769F00395FD
:1009D800101791F00C94080500E0301609F102E0B8
:1009E800301631F10C94200500E03016E9F001E0F2
:1009F8003016F1F00C94200501E0301669F003E0A0
:100A0800301691F00C94200502E0301629F003E02E
:100A1800301631F00C94200500E0302E0C9420059F
:100A280001E0302E0C94200502E0302E0C942005B5
:100A380003E0302E0C9420050F910FBF1F910F91EA
:100A48000F910FBF1F910F9108950F931F930FB729
:100A58000F930027F01609F401C1203011F0FEC0F1
:100A680021E06FEE44270027101611F00C94800542
:100A78000F931F930FB70F9312E00027101741F041
:100A88000395101769F00395101791F00C946405FD
:100A980000E0301609F102E0301631F10C947C05C3
:100AA80000E03016E9F001E03016F1F00C947C0516
:100AB80001E0301669F003E0301691F00C947C05E3
:100AC80002E0301629F003E0301631F00C947C0572
:100AD80000E0302E0C947C0501E0302E0C947C054F
:100AE80002E0302E0C947C0503E0302E0C947C053B
:100AF8000F910FBF1F910F9102E0B01611F40C94E3
:100B0800230605E0801711F00C949E0500EC84D1B3
:100B180093D1192D00E3010F86D18ED1022D08B98A
:100B28000027901611F00C949E0576E0DD2422240F
:100B38000C942306443011F40C94350560930B0192
:100B48000FEF0A95F1F7009109010F700F3059F076
:100B580051E03327343039F0102F152341F0339505
:100B6800550F0C94AE05660F43950C9437050F93FB
:100B78001F930FB70F9310E00027101741F003954C
:100B8800101769F00395101791F00C94E30500E035
:100B9800301609F102E0301631F10C94FB0500E043
:100BA8003016E9F001E03016F1F00C94FB0501E095
:100BB800301669F003E0301691F00C94FB0502E062
:100BC800301629F003E0301631F00C94FB0500E0F4
:100BD800302E0C94FB0501E0302E0C94FB0502E04E
:100BE800302E0C94FB0503E0302E0C94FB050F917E
:100BF8000FBF1F910F91C6E0D2E000270993088329
:100C080001E0102E433049F0333059F0032F000F24
:100C1800030F040F0F5F0C9422060AE0030F0C94D5
:100C28002206403029F0413031F00FE00C942206C2
:100C38000EE00C94220600270C942206E02EBB241A
:100C4800C4E0D2E0002709930883FF240C942C0603
:100C5800703021F0723039F0763049F00F910FBFC3
:100C68001F910F9108957727C2DC0C9432067727DD
:100C78001EDE0C9432060F931F930FB70F9311E0EB
:100C8800E116C1F01395E116D9F01395E116F1F0CC
:100C98001395E11609F11395E11621F11395E11663
:100CA80039F11395E11651F11395E11669F1139590
:100CB800E11681F180900A0290900B020C94940640
:100CC80080900C0290900D020C94940680900E0275
:100CD80090900F020C94940680901002909011024C
:100CE8000C94940680901202909013020C9494062F
:100CF80080901402909015020C949406809016022D
:100D0800909017020C949406809018029090190203
:100D18000C94940680901A0290901B020C949406EE
:100D28000F910FBF1F910F9108950F931F930FB746
:100D38000F9311E0E116C1F01395E116E1F0139558
:100D4800E11601F11395E11621F11395E11641F130
:100D58001395E11661F11395E11681F11395E116EA
:100D6800A1F11395E116C1F180900A028A9480924C
:100D78000A020C94F70680900C028A9480920C0266
:100D88000C94F70680900E028A9480920E020C94BE
:100D9800F706809010028A94809210020C94F7064D
:100DA800809012028A94809212020C94F706809026
:100DB80014028A94809214020C94F706809016020A
:100DC8008A94809216020C94F706809018028A94EE
:100DD800809218020C94F70680901A028A948092E6
:100DE8001A020C94F7060F910FBF1F910F910895E7
:100DF8000F930FB70F930FEF08B904BB0F910FBFF5
:100E08000F9108950F930FB70F93002708B904BBEC
:100E18000F910FBF0F91089501BB1FD0169A1DD0D7
:100E280016981BD0089501BB179A17D0169A15D09B
:100E3800169813D0179808950F93002700BB01BB8D
:100E4800159A0BD0169A09D00FB1169807FDF9CF4D
:100E580015980FEF00BB0F9108958F939F939FE014
:100E68008CE90197F1F79F918F910895F6DFF5DFEF
:100E7800F4DFF3DFF2DF0895F9DFF8DFF7DFF6DFFD
:100E8800F5DF0895F9DFF8DFF7DFF6DF0895FADF19
:0A0E9800F9DFF8DFF7DFF6DF089559
:00000001FF
